:020000040800F2
:1000000000200020DD010008E5010008E9010008EA
:1000100000000000000000000000000000000000E0
:1000200000000000000000000000000005020008C1
:10003000000000000000000009020008CD060008D2
:100040001502000815020008150200081502000834
:100050001502000815020008150200081502000824
:100060001502000815020008150200081502000814
:100070001502000815020008150200081502000804
:100080001502000815020008000000001502000813
:1000900015020008150200081502000815020008E4
:1000A00015020008150200081502000815020008D4
:1000B0001502000800000000150200080000000002
:1000C0005FF808F130B583B000F0CEF9314B324A19
:1000D0001360324A1360324B324A03E011681960F0
:1000E0000433043230498B42F8D32B4B1A682F4B20
:1000F0009A4204D1294B1A682D4B9A4200D0FEE750
:10010000244B2C4A13602C4A13602C4B02E0002233
:100110001A6004332A4A9342F9D3264B1B68002BFA
:1001200003D1254B1B68002B00D0FEE700F0A0F99F
:1001300001A8694600F08CF9224C234B1C1BA4102B
:10014000002504E0AA001F4BD35898470135AC4264
:10015000F8DC1E4C1E4B1C1BA410002504E0AA005A
:100160001A4BD35898470135AC42F8DC01980099F6
:1001700000F0B0FA051C174C174B1C1BA41004E030
:10018000013CA200134BD3589847002CF8DC281CE4
:1001900000F058F9BABADECA0000002020000020A2
:1001A00000000020100800082400002078563412B7
:1001B00032547698240000203000002024000020D3
:1001C0003400002018020008180200081802000875
:1001D00018020008180200081802000808B5FFF706
:1001E00071FFC04600BEFEE704207146084202D0FF
:1001F000EFF3098001E0EFF308807146044A1047ED
:1002000000BEFEE700BEFEE700BEFEE7704700004E
:080210000102000800BEFEE738
:10021800F8B5051C0E1C9023DB05984212D03D4B07
:1002280098420FD03C4B98420CD03C4B984209D096
:100238003B4B984206D03B4B984203D03A48AE21FC
:1002480000F00AF93368002B03D13748AF2100F0DA
:1002580003F93379032B03D93348B02100F0FCF8B4
:10026800F379022B03D93048B12100F0F5F80024C6
:100278004CE00123A34032681A409A4245D13379B1
:10028800013B012B28D87379012B05D9032B03D007
:100298002548C12100F0E0F8AA68600003218140E8
:1002A8008A43AA60A9687279131C83400B43AB6028
:1002B800B379012B03D91C48C82100F0CDF8AB88CD
:1002C8002204120C012191408B43AB80A888B1799C
:1002D80091408BB20343AB802B6867000320021C5C
:1002E800BA4093432B602B6831790A1CBA401A43F1
:1002F8002A60EB682204D20B90408343EB60E968E4
:10030800F279131CBB400B43EB6001340F2CB0D9BE
:10031800F8BDC0460004004800080048000C00482A
:100328000010004800140048AC07000838B5041C49
:100338000D1C9023DB05984213D00E4B984210D029
:100348000D4B98420DD00D4B98420AD00C4B984259
:1003580007D00C4B984204D00B488621FF3100F09F
:100368007BF8002D04D10848C321490000F074F837
:10037800A56138BD0004004800080048000C00488A
:100388000010004800140048AC07000838B5041CE9
:100398000D1C9023DB05984213D00E4B984210D0C9
:1003A8000D4B98420DD00D4B98420AD00C4B9842F9
:1003B80007D00C4B984204D00B48CD21490000F0DF
:1003C8004BF8002D04D108489C21FF3100F044F877
:1003D800258538BD0004004800080048000C004886
:1003E8000010004800140048AC07000838B5041C89
:1003F8000D1C0D4B184201D1002803D10B480C49A4
:1004080000F02AF8012D03D908480A4900F024F819
:10041800002D04D0084B5A6914435C6103E0064A76
:100428005369A343536138BDA8FF81FEE007000864
:10043800560500005705000000100240FEE7C046C0
:1004480008B50120FFF7FAFF01230360014B0B6099
:100458007047C0460400002008B5FFF7F1FFC0460A
:1004680008B500F05DF808BD08B500F08BF808BDC8
:1004780082B0002301930093264A13688021490221
:100488000B431360234B1A6880239B02134000938D
:10049800019B01330193009B002B04D1019AA023F7
:1004A800DB019A42EED11B4B1B689B0302D501234B
:1004B800009301E000230093009B012B28D1112217
:1004C800154B1A60134B5A685A605A685A60596833
:1004D800124A0A405A605A68882149030A435A60F6
:1004E8001A68802149040A431A600A4B1B689B0159
:1004F800FBD5084B5A6803218A435A60596802227F
:100508000A435A60034B5B680C221340082BF9D14D
:1005180002B070470010024000200240FF7FC0FF79
:1005280008B5124B1A6801210A431A605868104A24
:1005380002405A6018680F4A02401A6018680E4A4A
:1005480002401A6058680D4A02405A60DA6A0F2061
:100558008243DA62186B0A4A02401A635A6B8A436A
:100568005A6300229A60FFF783FF08BD001002401B
:100578000CB8FFF8FFFFF6FEFFFFFBFFFFFFC0FF11
:10058800ACFEFFFF10B51E4B5B680C221340042B1A
:1005980007D0082B09D0002B22D11A4A1A4B1A600F
:1005A80021E0184A184B1A601DE0154B5C68A4023C
:1005B8005A68240F0234C0235B021A4204D113483C
:1005C8004443114B1C600EE00D4BDB6A0F211940B0
:1005D80001310C4800F096F844430B4B1C6002E0D4
:1005E800084A094B1A60064B5B681B061B0F084A32
:1005F800D35CDBB2044A1168D940116010BDC04613
:100608000010024000127A001C00002000093D0082
:100618000C00002030B583B0802000030121FFF7D3
:10062800E5FE8024A400009401236A461371002388
:100638009371032269464A71CB71054D281CFFF757
:10064800E7FD281C211CFFF7A1FE03B030BDC04602
:100658000008004808B50C4B1868FA21890000F01A
:1006680051F80138094B98420DD8094A5060094998
:100678000B6A1B021B0AC020000603430B620023FF
:1006880093600723136008BD1C000020FFFFFF00D4
:1006980010E000E000ED00E0034B1860024B1B681F
:1006A800002BFBD17047C0462C000020044B1B6870
:1006B800002B03D0024A1368013B13607047C04601
:1006C8002C00002008B5FFF7F1FF08BD38B5FFF78B
:1006D800C1FFFFF79FFF094D8024A400281C211C9F
:1006E800FFF724FE0648FFF7D7FF281C211CFFF759
:1006F8004DFEA7204000FFF7CFFFECE700080048B9
:100708009A020000002934D00123002210B4884244
:100718002CD301242407A14204D2814202D2090128
:100728001B01F8E7E400A14204D2814202D2490049
:100738005B00F8E7884201D3401A1A434C08A042EC
:1007480002D3001B5C0822438C08A04202D3001B82
:100758009C082243CC08A04202D3001BDC08224399
:10076800002803D01B0901D00909E3E7101C10BCBD
:100778007047002801D00020C04307B4024802A1F6
:100788004018029003BDC046190000000029F0D0AF
:1007980003B5FFF7B9FF0EBC4243891A1847C04694
:1007A8007047C0462E2E2F73797374656D2F737240
:1007B800632F73746D333266302D73746470657291
:1007C8006970682F73746D3332663078785F67703C
:1007D800696F2E63000000002E2E2F7379737465E5
:1007E8006D2F7372632F73746D333266302D73748B
:1007F800647065726970682F73746D33326630780F
:08080800785F7263632E630048
:10081000785634122800002000000000000000007C
:10082000000000000102030406070809006CDC0256
:040830003254769830
:04000005080000C52A
:00000001FF
